:020000040800F2
:10000000F0E00020D52100082D0C00082F0C00087E
:10001000330C0008370C00083B0C000800000000FF
:100020000000000000000000000000003F0C00087D
:10003000410C000800000000430C0008450C0008BB
:10004000EB210008EB210008EB210008EB21000860
:10005000EB210008EB210008EB210008EB21000850
:10006000EB210008EB210008EB210008EB21000840
:10007000EB210008EB210008EB210008EB21000830
:10008000EB210008EB210008EB210008EB21000820
:10009000472F0008EB210008EB210008E1070008CA
:1000A000EB210008A9100008EB210008EB21000853
:1000B000EB210008EB210008EB210008EB210008F0
:1000C000EB210008EB210008EB210008EB210008E0
:1000D000EB210008EB2100084D0C0008EB21000883
:1000E000EB210008EB210008EB21000800F002F8EA
:1000F00000F05EF80AA090E8000C82448344AAF164
:100100000107DA4501D100F053F8AFF2090EBAE861
:100110000F0013F0010F18BFFB1A43F0010318473B
:10012000FCBC00001CBD000010F8013B0A4413F0A9
:10013000030408BF10F8014B1D1108BF10F8015B44
:10014000641E05D010F8016B641E01F8016BF9D133
:10015000002D15D010F8014B03F00C030C2BA1EB74
:1001600004040ABF10F8013BA4EB8314A4EB03249E
:1001700005F1010314F8016B5B1E01F8016BF9D561
:10018000914238BF10F8013BD1D3704700230024BF
:1001900000250026103A28BF78C1FBD8520728BF97
:1001A00030C148BF0B6070471FB51FBD10B510BDF3
:1001B00009F086FB1146FFF7F7FF00F072FB09F02C
:1001C000A4FB03B4FFF7F2FF03BC02F0C6FF00007C
:1001D000EFF30980704780F309887047EFF30880D8
:1001E000704780F30888704740BA7047C0BA7047BC
:1001F00010B5002807DA0A07140EFE4A00F00F03B4
:100200001B1FD45403E00A07130EFB4A135410BDFE
:1002100010B50446B4F1807F01D3012010BD24F055
:100220007F40401E4FF0E02148610F214FF0FF302A
:10023000FFF7DEFF00204FF0E02188610720086112
:100240000020EBE710B501F013FFEC480068401CFC
:10025000EA49086006F0C2FC01F028F9E8480068A5
:10026000052802D10020E6490860E6480068401EE3
:10027000E4490860E448008838B94FF47A70E249EC
:1002800008800120E149087004E0DF480088401E32
:10029000DD490880DE480068B0F57A7F0DD1002086
:1002A000DB490860DB480068401CDA490860DA482E
:1002B0000068401CD849086004E0D5480068401C2C
:1002C000D3490860D34800681E2802D10020D149D4
:1002D0000860D1480068D149884202D10020CE4947
:1002E0000860C7480068401CC5490860CC480068E1
:1002F0000A2805D108F093FF0020C949086004E0EE
:10030000C7480068401CC649086010BD00E0401E98
:100310000028FCDC704710B50446C4B1C1484068F1
:1003200000F00C00082824D0BE48406820F00300EC
:10033000BC4948600846406840F00200486000BF81
:10034000B848406800F00C000828F9D111E0B54821
:10035000406800F00C0060B1B248406820F0030033
:10036000B049486000BFAF48406800F00C0000286A
:10037000F9D11CB1AC48FFF74BFF03E04FF4FA5042
:10038000FFF746FF10BD08B50121052001F04CFC28
:100390000120ADF8000010208DF8030003208DF837
:1003A00002006946A14801F09DFC0220ADF8000062
:1003B00000208DF8030069469C4801F093FC04205E
:1003C000ADF8000028208DF803006946974801F039
:1003D00089FC0820ADF8000000208DF80300694674
:1003E000924801F07FFC1020ADF800008DF803006A
:1003F00003208DF8020010218C4801F00BFD6946A6
:100400008A4801F06FFCE020ADF8000018208DF85C
:10041000030003208DF802002021844801F0FAFC3B
:100420008021824801F0F6FC6946804801F05AFCC0
:100430004FF48070ADF8000048208DF80300694645
:100440007A4801F04FFC0121092001F0EDFB012069
:10045000ADF8000048208DF803006946744801F0AB
:1004600041FC0220ADF8000048208DF803006946E9
:100470006F4801F037FC2020ADF8000010208DF807
:10048000030003208DF802002021694801F0C2FC1E
:100490006946674801F026FC4020ADF800001020B6
:1004A0008DF8030003208DF80200002240216048EF
:1004B00001F0B4FC69465E4801F014FC8020ADF800
:1004C000000010208DF8030003208DF80200802129
:1004D000574801F09FFC6946554801F003FC4FF472
:1004E0008070ADF8000010208DF8030003208DF817
:1004F00002004FF480714E4801F08CFC69464C4874
:1005000001F0F0FB4FF40070ADF8000010208DF802
:10051000030003208DF802004FF40071444801F0FD
:1005200079FC6946424801F0DDFB4FF48060ADF88C
:10053000000048208DF8030069463D4801F0D2FBD9
:100540004FF40060ADF8000048208DF803006946C4
:10055000374801F0C7FB4FF48050ADF80000102081
:100560008DF8030003208DF8020000224FF4805123
:100570002F4801F053FC69462D4801F0B3FB4FF4BE
:100580000050ADF8000018208DF8030003208DF80E
:10059000020000224FF40051254801F03FFC69465B
:1005A000234801F09FFB4FF48040ADF80000182075
:1005B0008DF8030069461E4801F094FB4FF400409B
:1005C000ADF8000048208DF803006946184801F096
:1005D00089FB0121112001F027FBFF20ADF800006D
:1005E00010208DF8030003208DF80200FF21114830
:1005F00022E0000018ED00E000E400E0040000202C
:1006000044000020080000201E00002022000020DE
:10061000380000203C00002040000020A0BB0D005E
:10062000480000200010024040190100000801406D
:10063000000C01400010014001F0ECFB6946FE484F
:1006400001F050FB4FF48070ADF8000048208DF8A9
:1006500003006946F84801F045FB4FF48060ADF8AF
:10066000000010208DF8030003208DF80200002206
:100670004FF48061F04801F0D1FB6946EE4801F08B
:1006800031FB4FF40060ADF8000014208DF803003A
:1006900003208DF802004FF40061E74801F0BAFB37
:1006A0006946E54801F01EFB4FF44050ADF80000EC
:1006B00010208DF8030003208DF802004FF48051C4
:1006C000DD4801F0A9FB4FF40051DB4801F0A4FB29
:1006D0006946D94801F006FB0121212001F0A4FA66
:1006E0000420ADF8000010208DF8030003208DF8E1
:1006F000020000220421D14801F090FB6946CF4856
:1007000001F0F0FA4FF40070ADF8000010208DF801
:10071000030003208DF802004FF40071C64801F079
:1007200079FB6946C44801F0DDFA4CF25030FFF71E
:10073000EDFD4FF48060ADF8000010208DF803004F
:1007400003208DF802004FF48061BB4801F062FB8A
:100750006946B94801F0C6FA4FF40070ADF80000E0
:1007600004208DF803006946B54801F0BBFAB5488E
:10077000806940F00100B3498861B3488068B2499C
:100780008860084680688860B048006840F400705F
:10079000AE490860AD480C38006840F40070AB49C1
:1007A0000C3908600F211720FFF722FD17200121C7
:1007B00081404209920002F1E022C2F8001100BF1C
:1007C00008BD10B506F020F919211C2006F093F998
:1007D0009F4A00219FA006F0DEF906F0F9F810BD4F
:1007E00010B50421964801F008FB10B99C48007828
:1007F00040B196480830006840F002009349083143
:10080000086020E001F0E6F80120FFF784FDFFF723
:10081000D8FF002401E000BF641C92488442FAD350
:100820000122D102844801F0F9FA4FF48061824834
:1008300001F0F2FA4FF400717F4801F0EDFA01E0A7
:1008400001F016FCFCE710BD70B5002501F04EF874
:10085000002008F085FA04467CB109E0002008F089
:100860007FFA044604B907E042F21070FFF74EFD2C
:1008700028466D1C0528F1D300BF05F0CBFF0446C8
:10088000E0B270BD70B5044665682E462068FFF77B
:10089000A8FCA4F100614FF0006001F077F9B047C7
:1008A00070BD2DE9F04FADF2CC4DDFF8BCA14FF09B
:1008B000000B0024A04600260520149001200E9075
:1008C0004FF6FF75FFF75FFD6848FFF71FFD6748AC
:1008D000FFF71CFD6548FFF719FD012291025648FC
:1008E00001F09CFA6148FFF711FD6048FFF70EFD2B
:1008F0005E48FFF70BFD01F0EBF80120FFF70BFD61
:1009000006F099F800F078FFFFF79EFF064668466C
:1009100003F002FE30226946554808F02EFD0420FF
:1009200000F0EFFEF8B90121084606F0E4F8514A5C
:10093000002151A006F02FF906F04AF800BF04216B
:100940003F4801F05AFA0028F9D002F0A1F9042139
:100950003B4801F052FA4C4908600846006802F032
:10096000A5F900BFFEE7012248A115A807F07AFC0F
:100970000646A2A946A007F094FE0646002E50D1D6
:10098000112243A1AAA807F098FC06461FE00EAB6F
:1009900001220CA9AAA807F043FD06460E9800B94B
:1009A00016E09DF8300045404FF000080CE02F465F
:1009B0003D4607F001096D10B9F1000F02D04AF26F
:1009C0000100454008F10108B8F1080FEFD3DEE758
:1009D00000BF35B306F018F80F21012006F08BF8A0
:1009E000244A00212DA006F0D6F81921012006F096
:1009F00082F8204A00212EA006F0CDF82D210120FA
:100A000006F079F81B4A00212CA006F0C4F805F086
:100A1000DFFF00BF102000F074FE0028FAD1FFF7BE
:100A2000DFFE002E77D105F0EFFF0121084606F02A
:100A300062F8104A002149E0001001400014014012
:100A40000008014000100240000001400C04014079
:100A50008CB80008C2DBCACBDED7C5CDC8C5000044
:100A60002C000020FFFF1F0000000108A0860100ED
:100A7000A00B002084AA0008C7E0E3F0F3E7F7E842
:100A8000EA20332E3100000010000020303A000030
:100A900070726F67312E62696E000000D4E0E9EB7E
:100AA00020EFEEE2F0E5E6E4E5ED2C2000000000AA
:100AB000EEF8E8E1EAE0204352432E00CDE0E6EC18
:100AC000E8F2E520454E5445522E000044A006F0C1
:100AD00062F805F07DFF01F0D3FA002405E04549F6
:100AE00001EBC42001F013FB641CBF2CF7D31122CF
:100AF000AFF26401AAA807F0E0FB0646D6B90024CD
:100B000012E00EAB04220FA9AAA807F089FC064642
:100B10000E9808B909E03AE0364A02EB84000F99D2
:100B200001F01BFB0D90641CEBE700BFAAA807F0C7
:100B3000A8FD064601F0AAFA05F066FF0121084665
:100B400005F0D9FF2C4A00212CA006F024F814212E
:100B5000012005F0D0FF284A00212EA006F01BF846
:100B600005F036FF00BF102000F0CBFD0028FAD1C1
:100B7000AFF2E40007F0B5FD06460022AFF2F40143
:100B8000104607F06FFB06461A48FFF77BFE00226F
:100B9000AFF20811104607F065FB06460121084632
:100BA00005F0A9FF144A00211EA005F0F4FF05F08E
:100BB0000FFFDAF80000401C50B908E0082000F0F0
:100BC000A0FD20B94FF40071174801F025F9F5E7B1
:100BD0000848FFF757FE00200DF2CC4DBDE8F08F1E
:100BE000CEE1EDEEE2EBE5EDE8E520CFCE2E2E2EC8
:100BF000000000000000010884AA0008CEE1EDEE2C
:100C0000E2EBE5EDE8E520E7E0E2E5F0F8E5EDEE22
:100C10002C000000EDE0E6ECE8F2E520456E74659E
:100C2000722E00002A00000000100140704700BF33
:100C3000FEE700BFFEE700BFFEE700BFFEE770472C
:100C40007047704710B5FFF7FDFA10BD10B540F2C0
:100C500025510F4801F01CF848B10D4801F00AF881
:100C60000C49087008460178094800F0FFFF40F27F
:100C70002661074801F00CF840B14021044800F01B
:100C8000FEFF04480078401E0249087010BD0000B5
:100C90000044004090000020F0B5024600BFD56936
:100CA0001562956AD562D1611569D06980FB0550DE
:100CB000176A566987FB0667AD197841D76A966847
:100CC00087FB0667AB1940EB07044FF00057DE19AE
:100CD00044F10000850045EA96709062874D906A65
:100CE000A84201DD2846F0BD906AB0F1404F02DA1B
:100CF0004FF04040F7E7906AF5E72DE9F0430246F0
:100D000000BF156A5562D56A1563D5691562956A83
:100D1000D562D1611569D06980FB0550176A5669A3
:100D200087FB0676ED197041576A966987FB06675F
:100D3000AE197841D76A956887FB05C5D2F830802F
:100D4000D76888FB0787B9461CEB080745EB090500
:100D5000F31940EB05044FF000569E1944F10000D2
:100D6000850045EA96709062644D906AA84202DD63
:100D70002846BDE8F083906AB0F1404F02DA4FF0A8
:100D80004040F6E7906AF4E72DE9F047034600BFDC
:100D90001E6A5E62DE6A1E63DE691E629E6ADE6233
:100DA000DA611E69D86980FB0670D3F820C05E69DD
:100DB0008CFB06C6B04617EB0C0640EB0800D3F8D8
:100DC00024C09F698CFB077CF71940EB0C00D3F81B
:100DD0002CC09E688CFB0686D3F80CC0D3F83090EC
:100DE00089FB0C9CE24618EB090C46EB0A0617EB54
:100DF0000C0440EB06054FF0005C14EB0C0745F1CA
:100E00000000860046EA9770986200BF0E6A4E6244
:100E1000CE6A0E63CE690E628E6ACE62986AC8612F
:100E20000E69C86980FB0670D1F820C04E698CFB42
:100E300006C6B04617EB0C0640EB0800D1F824C0FC
:100E40008F698CFB077CF71940EB0C00D1F82CC0A4
:100E50008E688CFB0686D1F80CC0D1F8309089FBE7
:100E60000C9C18EB090846EB0C0617EB080440EB4A
:100E700006054FF00056A61945F10000870047EA25
:100E8000967088621D4E886AB04202DD3046BDE829
:100E9000F087886AB0F1404F02DA4FF04040F6E741
:100EA000886AF4E730B5C2688A4200DAC160026934
:100EB0008A4200DD016101F58042D11381FB0153BB
:100EC000D0E9004264195A41C0E900420289521C2B
:100ED0000281028943899A420FDBD0E90023C0E9ED
:100EE0000623C2680262026942620022C260026195
:100EF00002604260028180F8282030BD0080FF3F00
:100F00002DE9F04104460D461746002007F0D8FFB2
:100F100006462EB101221EA11E4807F0A3F906467F
:100F200072B671B6012322462946002008F013F854
:100F3000064662B661B6002215A1104607F092F986
:100F400006460120BDE8F0812DE9F04104460D463A
:100F50001746002007F0B4FF06462EB101220CA16F
:100F60000C4807F07FF9064672B671B60123224697
:100F70002946002007F0ABFF064662B661B60022A4
:100F800003A1104607F06EF906460120BDE8F08186
:100F9000303A00002807002010B500244FF480509C
:100FA000FE49086008600860086008600860086022
:100FB00008600860086008600860086008600860F1
:100FC00008600860086008600860086008600860E1
:100FD00008600860086008600860086008600860D1
:100FE00008600860086008600860086008600860C1
:100FF00008600860086008600860086008600860B1
:1010000008600860086008600860086008600860A0
:1010100008600860FF21E24800F06AFF00BFE04876
:101020000830008800F002000028F8D0FF21DC48DA
:1010300000F05EFF00BFDA480830008800F00100D1
:101040000028F8D0D64800F055FF044600BFD44829
:101050000830008800F002000028F8D0FF21D048B6
:1010600000F046FF00BFCE480830008800F00100C5
:101070000028F8D0CA4800F03DFF40EA042400BF31
:10108000C7480830008800F001000028F8D0C448A4
:1010900000F030FF40EA04244FF48050BF49091F9C
:1010A0000860A408A0B210BD70B54FF40061BD483F
:1010B00000F0B0FE192000F03FFB054608F09CFF51
:1010C0000446B94908F0A2FEB84908600121B848B1
:1010D00000F0A3FFFFF760FFA0F50040B5490860EE
:1010E00008460168B4480078B44A12781040B44AFF
:1010F00042F82010B0480078401CAF4908700846FC
:101100000078AE490978084000286ED1AB480078D5
:10111000012808D11046006811464968084440106B
:10112000A44908600DE0A6480068A549496808443C
:10113000A34989680844A249C968084480109D49A8
:1011400008609C48006847F6F461884204DC9948CE
:1011500000684942884205DA9A48006810B90120BF
:101160009949087093480068C003924908609748FD
:10117000008840F20122811A904276D010DCB0F54E
:10118000827F48D005DCA0F20110C8B101286DD1E2
:101190002CE0B0F5847F53D0B0F5887FF7D166E0BE
:1011A00007296FD004DC01296DD00329EFD1A4E019
:1011B000B1F5007F68D0A1F2FF510029E7D118E115
:1011C0007C4802688248016882480068FFF7DCFDBD
:1011D00078490860084602687F4801687F480068CF
:1011E000FFF7D2FD734908600FE143E171480268DF
:1011F0007748016877480068FFF7C6FD6D490860C9
:10120000084602687448016874480068FFF7BCFD2E
:1012100068490860F9E0674802686D4801686D48F0
:101220000068FFF7B1FD63490860084602686A4834
:1012300001686A480068FFF7A7FD5E490860E4E0BE
:101240005C4802686248016862480068FFF79CFDDC
:1012500058490860084602685F4801685F480068AE
:10126000FFF792FD53490860CFE00EE0CCE0514813
:1012700002685948016859480068FFF785FD4D49E3
:101280000860C2E054E01DE06DE04A480268504842
:10129000016850480068FFF777FD46490860084636
:1012A00001684F480068FFF728FD4249086008467A
:1012B00002684948016849480068FFF765FD3D49F3
:1012C0000860A2E03B480268414801684148006864
:1012D000FFF75AFD37490860084601684048006832
:1012E000FFF70BFD33490860084601683B4800687A
:1012F000FFF7D2FC2F49086087E02E480268344887
:10130000016834480068FFF73FFD2A490860084635
:10131000016833480068FFF7F0FC2649086008467A
:1013200001682E480068FFF7B7FC224908606CE0AE
:10133000204802682648016826480068FFF724FD17
:101340001C4908600846016825480068FFF7D5FC7D
:10135000184908600846016820480068FFF79CFCAF
:101360001449086051E01348026819480168194897
:101370000068FFF709FD0F49086008460268164833
:10138000016816480068FFF7FFFC0A490860084634
:101390000268144801681248006825E0140C0140F6
:1013A000003800400008014000007A44B8000020E6
:1013B000002C0140A4000020BC000020BD00002043
:1013C00090CF0020AC000020B4000020A800002036
:1013D000D4050020D0050020DC050020D805002021
:1013E000E0050020E4050020FFF7CEFC2549086059
:1013F0000BE0244802682448016824480068FFF78D
:10140000C3FC2049086000E000BF00BF204800681E
:1014100028B11F480068401E1D49086070BD19486A
:1014200001681C48FFF73EFD1B480088002821DDAD
:1014300019480088401E184908801248006808F0C2
:10144000C3FD054615480168284608F0E9FD044635
:1014500008F09EFD124908600846006800F58040CB
:10146000C01300B20F49096808800E480068801C4C
:101470000C4908604FF400610B4800F0CDFC00BF40
:10148000CCE70000A4000020DC050020D8050020E7
:10149000AC000020A0CF0020A0000020B800002059
:1014A000B00000209C0000200008014010B54FF45F
:1014B00000619B4800F0A1FC30B99A48007840F0E8
:1014C00001009849087005E09648007820F0010076
:1014D000944908704FF48071934800F08EFC30B945
:1014E0009048007840F002008E49087005E08D4871
:1014F000007820F002008B4908700121884800F034
:101500007CFC30B98748007840F0040085490870B9
:1015100005E08448007820F00400824908704FF408
:1015200080617F4800F069FC30B97E48007840F067
:1015300008007C49087005E07A48007820F008002F
:10154000784908700221764800F057FC30B9754898
:10155000007840F010007349087005E07148007889
:1015600020F010006F4908706E4800786F490978C4
:1015700088427DD06E480078002879D16B48007889
:1015800000F0010050B96748007800F0010028B170
:101590006848006840F001006649086063480078C8
:1015A00000F0020002280BD05E48007800F0020034
:1015B000022805D15F48006840F002005D490860DC
:1015C0005A48007800F0040004280BD055480078F1
:1015D00000F00400042805D15648006840F00400DB
:1015E000544908605148007800F0080008280BD0E2
:1015F0004C48007800F00800082805D14D480068E4
:1016000040F008004B4908604848007800F010009E
:1016100010280BD04348007800F01000102805D1A6
:101620004448006840F01000424908603F48007894
:1016300000F0010050B13B48007800F0010028B9EB
:101640003C48006840F020003A490860374800787C
:1016500000F0020002280DD13248007800F00200AC
:10166000022807D03348006840F04000314900E0CC
:101670003DE008602D48007800F0040004280BD1FC
:101680002848007800F00400042805D029480068A4
:1016900040F08000274908602448007800F00800E6
:1016A00008280BD11F48007800F00800082805D052
:1016B0002048006840F480701E4908601B4800788C
:1016C00000F0100010280BD11648007800F0100030
:1016D000102805D01748006840F4007015490860CC
:1016E00010480078114908701E20114908701048F0
:1016F0000078002804DD0E480078401E0C49087070
:1017000010BD01460B480068084030B10948006828
:101710008843084A1060002070470120FCE7000061
:10172000000C0140E805002000100140E905002000
:10173000F0050020EC05002070B50446202C01D3F4
:10174000002070BD1E4800EBC400807902282ED115
:1017500000F094F81CB9012000F09EF8F1E7012C8C
:101760000ED1032000F098F80546022000F094F80E
:1017700000EBC00101EB001005EB800080B2E0E758
:10178000022C0ED1052000F087F80546042000F059
:1017900083F800EBC00101EB001005EB800080B284
:1017A000CFE7032C03D1062000F076F8C9E70D2C13
:1017B00002D14FF49B70C4E7024830F81400C0E730
:1017C000B8A1000802D0002010B5002045490860EB
:1017D000486088600120C860002008614620486198
:1017E000084607F0B2FE044600F064FB204600F015
:1017F00046FB00F05FFB10BD10B501214FF0C0505B
:1018000000F01FFA3848FEF781FD012000F02AFCA5
:10181000042000F018FC4AF6AA21884228D000F0E3
:10182000FFFB012000F0DEF900BF412000F0BEF90F
:101830000028FAD04FF4807000F0EDF9012000F09C
:10184000F0F900F040FB00F035FB0121084600F004
:10185000EDFA47F6FF7000F01FFB00F02BFBFFF7DF
:10186000B3FF4AF6AA21042000F0E2FB002010BDDD
:1018700000F029FB00F01EFB0120F8E738B500F06E
:10188000F5FA0090684607F03BFE04462C222146FC
:10189000144807F072FD38BD0146072920D2DFE861
:1018A00001F01F040A0F13171B000E48808A00F274
:1018B0006C7080B270470B48008A401C80B2F9E718
:1018C0000848808980B2F5E70648008980B2F1E7D0
:1018D0000448808880B2EDE70248008880B2E9E7DA
:1018E0000020E7E744D00020400D0300364880691F
:1018F00040F00100344988610846806940F00400E6
:1019000088613248006840F4403030490860084639
:10191000006820F44020086010202C491031086035
:101920002A48006840F440102849086008460068CA
:1019300020F4400008600846006840F40000086099
:101940000846006820F0407008600846006820F0F3
:10195000406008600846006840F000600860402071
:101960001A49103108601948006840F04050174982
:1019700008600846006820F040400860084600689B
:1019800040F0004008601048806940F480500E49E3
:10199000886100200E49888004200880084600885D
:1019A00040F0100008800846008840F480700880ED
:1019B0000846008840F4007008800846008840F01F
:1019C00040000880704700000010024000080140FD
:1019D0000030014010B50448006818B102480068A2
:1019E00007F041FC10BD0000F40500200CB50020FC
:1019F000019000904848006840F4803046490860F3
:101A000000BF4548006800F4003000900198401C79
:101A10000190009818B90198B0F5A06FF1D13E4837
:101A2000006800F4003010B10120009001E00020B7
:101A300000900098012844D13848006840F0100018
:101A4000364908600846006820F003000860084630
:101A5000006840F0020008602F4840682E49486046
:101A60000846406848600846406840F48060486026
:101A70000846406820F47C1048600846406840F4FE
:101A8000E81048600846006840F08070086000BFB9
:101A90002148006800F000700028F9D01E48406816
:101AA00020F003001C4948600846406840F00200EE
:101AB000486000BF1848406800F00C000828F9D1C1
:101AC00001E000BFFEE70CBD10B5FFF78FFF10BDB2
:101AD00010B51148006840F001000F490860084641
:101AE00040680F4908400C494860084600680D49A5
:101AF0000840094908600846006820F48020086012
:101B00000846406820F4FE0048604FF41F008860DB
:101B1000FFF7DAFF10BD0000001002400020024075
:101B20000000FFF8FFFFF6FE70B5002100230F2232
:101B3000C47804B3194C246804F4E064C4F5E06488
:101B4000210AC1F10403CA40447804FA03F18478FD
:101B5000144021430901124C0678A155047804F081
:101B60001F050124AC4005786D11AD0005F1E0259D
:101B7000C5F8004109E0047804F01F050124AC40D9
:101B8000084D0678761145F8264070BD064A0A4091
:101B90000243024B1B1F1A60704700000CED00E06F
:101BA00000E400E080E100E080FFFF1F10B5014687
:101BB0000022002300204A11012A02D1294C236867
:101BC00006E0022A02D1274C236A01E0254C636A11
:101BD00001F01F02012494401C400CB1012000E0E0
:101BE000002010BD00211F4A203211701D4A82F8CA
:101BF0002010012802D004280AD104E00121194A4A
:101C00002032117005E00521164A2032117000E0E3
:101C100000BF00BF70471349096A0143114A1162AE
:101C2000704711490860704729B10E4A9269024312
:101C30000C4B9A6104E00B4A92698243094B9A610A
:101C4000704729B1074AD2690243064BDA6104E0C2
:101C5000044AD2698243034BDA6170470249091D85
:101C600008607047001002403C044242C1F3080281
:101C70008280704701468888C0F30800704701F4ED
:101C80000072B2F5007F00D100BFCA4302807047E6
:101C900070B50246002400230025002040F66A1695
:101CA000B14200D100BFC1F3421501F01F0301266C
:101CB00006FA03F3012D02D19689334006E0022D86
:101CC00002D1168A334001E0968A33400C12012675
:101CD00006FA04F41688344013B10CB1012000E078
:101CE000002070BD2DE9F0410246002500260020AD
:101CF00000230024002791F803C00CF00F0591F891
:101D000003C00CF0100CBCF1000F03D091F802C01E
:101D10004CEA050591F800C0BCF1000F31D0146801
:101D200000202BE04FF0010C0CFA00F3B1F800C0DA
:101D30000CEA03069E4220D183004FF00F0C0CFAF0
:101D400003F7BC4305FA03FC4CEA040491F803C012
:101D5000BCF1280F06D14FF0010C0CFA00FCC2F8C0
:101D600014C00AE091F803C0BCF1480F05D14FF050
:101D7000010C0CFA00FCC2F810C0401C0828D1D39A
:101D80001460B1F800C0BCF1FF0F34DD54680020CE
:101D90002EE000F1080C4FF0010808FA0CF3B1F83E
:101DA00000C00CEA03069E4221D183004FF00F0CC5
:101DB0000CFA03F7BC4305FA03FC4CEA040491F85F
:101DC00003C0BCF1280F05D100F1080C08FA0CF88B
:101DD000C2F8148091F803C0BCF1480F07D100F19C
:101DE000080C4FF0010808FA0CF8C2F81080401CEB
:101DF0000828CED35460BDE8F081024600209368E5
:101E00000B400BB1012000E0002070470146C8687C
:101E100080B2704701617047416170470AB101614A
:101E200000E041617047C1607047000029B12F4A4E
:101E3000128802432D4B1A8004E02C4A12888243F8
:101E40002A4B1A8070472948001D008840F0100076
:101E50002649091D088070472448001D00884FF658
:101E6000EF7108402149091D0880704700211F4873
:101E70001C300188001F008841EA0040704700B50F
:101E80000246FFF7E0FF100C184918310880091DC1
:101E90000A80FFF7E1FF00BD00B50246FFF7D3FF60
:101EA000C2F30340114908310880091D0A80FFF779
:101EB000D3FF00BD00BF0D48001D008800F02000CA
:101EC0000028F8D070470948001D00884FF6F771C8
:101ED00008400649091D088000BF0448001D00880D
:101EE00000F008000028F8D07047000000280040EB
:101EF00081817047014688897047F0B50C461546C8
:101F0000002100220026078C4EF6FF7C07EA0C0712
:101F10000784818B028C4FF6FF7707EA043640F680
:101F2000FF4739404FF6FF7707EA052739434FF659
:101F3000FF7707EA033739434DF6FF773A4046F417
:101F400080573A4381830284F0BDF0B50C461546B4
:101F5000002100220026078C4FF6FF6C07EA0C07D1
:101F60000784818B028C4FF6FF7707EA04264FF631
:101F70000C7739404FF6FF7707EA03172F433943B1
:101F80004FF6FF573A4046F480773A438183028404
:101F9000F0BDF0B50C461546002100220026078C46
:101FA0004FF6EF7C07EA0C070784018B028C4FF693
:101FB000FF7707EA041640F6FF4739404FF6FF77F0
:101FC00007EA033739434FF6FF7707EA0527394316
:101FD0004FF6DF773A4046F010073A430183028418
:101FE000F0BDF0B50C46154600210022068C4FF6D8
:101FF000FE773E400684018B028C4FF60C76314012
:102000007E1C06EA03162E4331437E1E324044F006
:102010000106324301830284F0BDCA430282704745
:1020200010B50120FFF71AFE0020FFF717FE10BDC4
:1020300008B5002200920A4A0092009A02440092D7
:10204000009A116008BD08B50146002000900448C0
:1020500000900098084400900098008808BD000097
:10206000006C0040014908627047000000000E4209
:102070004AF6AA200149086070470000003000407D
:102080005148524948605248486070474F4800697B
:1020900040F080004D490861704704204B49C968F1
:1020A00001F0010109B101200EE04849C96801F0C1
:1020B000040109B1022007E04449C96801F0100198
:1020C00009B1032000E00420704708B5002000900B
:1020D000FF20009002E00098401E00900098002829
:1020E000F9D108BD70B504460425FFF7D6FF0546B3
:1020F00005E0FFF7EAFFFFF7D0FF0546641E012D5C
:1021000001D1002CF5D104B90525284670BD70B564
:102110000546042440F6FF70FFF7E4FF0446042C54
:1021200019D12A48006940F0020028490861084690
:102130004561006940F04000086140F6FF70FFF71C
:10214000D1FF0446052C06D02048006941F6FD71F8
:1021500008401E490861204670BDF8B506460D4688
:102160000424002000900F20FFF7BCFF0446042C3D
:1021700028D11648006940F00100144908613580F3
:102180000F20FFF7AFFF0446042C12D1B01C0090C3
:10219000280C009908800F20FFF7A4FF0446052CA7
:1021A00010D00A48006941F6FE71084007490861ED
:1021B00008E0052C06D00548006941F6FE7108408C
:1021C000024908612046F8BD23016745002002400E
:1021D000AB89EFCD08480047FEE7FEE7FEE7FEE7E4
:1021E000FEE7FEE7FEE7FEE7FEE7FEE703480449F9
:1021F000044A054B70470000ED000008F0DA0020AB
:10220000F0E00020F0DC0020F0DC002010B500F051
:1022100073FB10BD70477047704710B5044672B627
:1022200071B6FFF725FF00F006FB62B661B610BD80
:1022300010B5044672B671B6FFF71AFF00F01FFB27
:1022400001200249087062B661B610BD1500002079
:102250000020F7490870012070470020F5490870F8
:102260000120704710B5F448C0684002F349086087
:10227000F3480068402801D9402401E0F048046890
:10228000F04800682044ED490968884207D9EB48C6
:102290000068EC490968441A0420E5490870A2B2B4
:1022A000E949E848006804F03EF92246E649812001
:1022B00000F020FEE34800682044E2490860E0485E
:1022C0000068001BDE490860E0488068001BDF49A9
:1022D0008860DB48006810B90320D5490870D448ED
:1022E0000078022802D00020D849087310BD10B52C
:1022F000D748D64908600D22812000F0FBFD05205B
:10230000CB49087010BD10B5CB48C0684002CB491E
:102310000860CC480068CF4909780844C749096873
:1023200088420CD9C5480078C6490978401AC9497D
:1023300008700520BE490870022000F0A0FDC548C5
:102340000278C149BF48006804F02DF9BD48006813
:10235000C04909780844BB490860B9480068BD49CC
:102360000978401AB6490860B8488068B9490978C0
:10237000401AB6498860B248006818B1AC48007885
:10238000052804D10020B1490873FFF7B0FF10BD44
:10239000704710B5B048407C0106AF48807C41EAE8
:1023A0000041AD48C07C41EA0020AB49097D40EACC
:1023B0000104AA4800686043A2490860A648C17D9C
:1023C000807D41EA0024A548006860439C4908607C
:1023D000A1488068096888420CD0812000F04FFD38
:1023E000022000F04CFD022098490873FFF77FFFA0
:1023F000002010BD0120FCE710B59748806830B977
:10240000022092490873FFF772FF002010BD924826
:10241000007B00F0800048B9022000F030FD02206F
:102420008A490873FFF763FF0020EFE70120EDE71B
:1024300010B58948806887490978884203D2864860
:10244000007A84490870834802787F49812000F02F
:1024500051FD0320764908707C4880687D490978E1
:10246000401A7A4988600020087310BD10B57A4878
:10247000806858B17848007B00F0800018B1812056
:1024800000F0FDFC02E0022000F0F9FC00206F49A2
:102490000873FFF72CFF10BD10B5FFF7ADFF00B9B3
:1024A00010BD7020684908700020487002208870B4
:1024B0000020C8700871487188710A20C871002016
:1024C000087248728872C8723020087301204873FD
:1024D00000208873C8730874487412205D4908701E
:1024E000FFF7A6FF00BFDBE710B5FFF785FF00B9D8
:1024F00010BD00205449087080204870002088706A
:102500000120C87020200871802048710020887147
:10251000C8714D2008726920487263208872722049
:10252000C8726F2008736420487372208873692012
:10253000C8737620087465204874202088742A2087
:10254000C874142043490870FFF772FF00BFCFE73B
:1025500010B5FFF751FF00B910BD03203A490870CC
:10256000002048708870C87004203A490870FFF74E
:102570005FFF00BFF0E710B5FFF73EFF00B910BDE9
:102580000020314908700620487000208870C8700B
:10259000087148718871C87108202E490870FFF7CA
:1025A00047FF00BFEBE710B52348C0682C4908601F
:1025B0002148C08A29490860FFF71EFF00B910BDF5
:1025C00027480068401E000E1F4908702448006814
:1025D000401E000C487022480088401E000A887087
:1025E0001F480078401EC8701C480068000E087123
:1025F0001A480068000C487118480088000A887161
:1026000016480078C871082012490870FFF710FFBB
:1026100000BFD4E710B50848C068114908600648F3
:10262000C08A0E490860FFF7E7FED8B910BD000068
:102630000406002025060020A00B0020080600202C
:1026400000060020FC05002070D00020CFD0002024
:102650005553425305060020B0D000200C06002040
:102660001006002000209B490870487088700820E0
:10267000C87099480068000E087197480068000CFF
:10268000487195480088000A887193480078C8719D
:102690000220087291480068000C48728F48008838
:1026A000000A88728D480078C8720C208C49087026
:1026B000FFF7BEFE00BF10BD10B5002404E0854842
:1026C000005D88490855641C854800788442F6D32B
:1026D000834800781F2874D1824800688249884264
:1026E000F9D180484068814948607E4880688860A8
:1026F0007C48407B38B97B48807B012803DB7948E4
:10270000807B102806DD00BF012078490873FFF7A1
:10271000EEFD8FE07348C07B1E282CD00FDC122802
:1027200025D005DCE0B103281DD0042877D11DE0B9
:10273000152821D01A2820D01B2870D11AE02A2869
:1027400040D006DC23281FD0252820D0282866D199
:1027500020E02F284BD0552812D05A285FD110E006
:10276000FFF784FE5CE0FFF797FE59E0CCE7FFF748
:10277000BBFE55E0C8E7C7E7C6E7FFF7E9FE4FE055
:10278000C2E7FFF7F8FE4BE0FFF744FF48E0FFF732
:102790000AFF45E0FFF7FDFD90B15248007B00F0D5
:1027A000800028B1022052490870FFF75BFD07E066
:1027B000022000F064FB02204C490873FFF797FDEC
:1027C0002EE02EE0FFF7E5FD80B14648007B00F0EB
:1027D000800018B901204649087007E0812000F008
:1027E0004EFB022041490873FFF781FD18E0FFF717
:1027F000D0FD90B13B48007B00F0800028B901205B
:102800003B4908703B49086007E0812000F037FB36
:10281000022036490873FFF76AFD01E0FFE773E71E
:1028200008E0812000F02BFB022000F028FB0620AE
:102830002F49087010BD10B52D480078022806D029
:1028400003280DD004280ED0052816D111E0254804
:10285000C07B282802D1FFF705FD00BF00BF0CE0B8
:10286000FFF745FD09E0812000F009FBFFF73FFD80
:1028700003E000201E49087000BF00BF10BD10B566
:102880001449022000F00BFB154908701848007825
:1028900010B1012812D102E0FFF70EFF17E0114836
:1028A000C07B2A2802D02F2806D102E0FFF72BFD9B
:1028B00002E0FFF76DFD00BF00BF08E0022000F05E
:1028C000DEFA022009490873FFF711FD00BF00BFBF
:1028D00010BD000070D00020100600200C06002063
:1028E00005060020B0D0002055534243CFD0002031
:1028F00004060020F80500200020BB490880BB49E1
:102900000870BB4908704FF00110BA4908600020F8
:10291000B9490860704710B5B849002000F0BFFA07
:1029200010BD10B5B6488088082801DD082401E0F4
:10293000B3488488B24822460168802000F0DAFA61
:102940000446AF4800682044AD49086008468088C6
:10295000001B888010BD10B5A9480168002000F058
:102960009EFA0446A64800682044A5490860084627
:102970008088001B888010BD10B500221146802081
:1029800000F0B8FA10BD10B59E49002000F087FA9B
:1029900010BD10B50446082C6FD2DFE804F06E04B9
:1029A000D9EF6E6EEEEDFFF7B6FF94490978C809CE
:1029B00000F04FFA9148C088914988808F4800788C
:1029C000C0F3411020B1012878D0022877D1B4E0BB
:1029D0008A4840780C2873D2DFE800F0060B881391
:1029E000881B2C313846587806F0EAFF00B9A6E07B
:1029F0007DE0002007F04CF800B9A0E0FFF7BCFF35
:102A000075E0012007F044F800B998E0FFF7B4FF43
:102A10006DE07A48007800F01F0040B97748807870
:102A200040F0800071490870FFF7A6FF00E086E0E3
:102A300000BF5CE006F070FF00B980E057E00020C6
:102A400000F01DFA00206E49888050E06B48007845
:102A500000F01F0028B9664869490860FFF761FF68
:102A600000E06CE000BF42E06448007800F01F0026
:102A700048B907F07BF808B961E0B2E0FFF77CFFE6
:102A8000FFF7CAFB00E05AE000BF30E05B48007887
:102A900000F01F00012816D15548007888B157482A
:102AA00000795949097888420BDA54480079574926
:102AB000084453490860FFF734FF03E019E03DE0A4
:102AC00014E03CE000E03AE000BF10E04B48007842
:102AD00000F01F00012806D107F010F900B92EE020
:102AE000FFF74AFF00E02AE000BF00E027E000BF58
:102AF0002CE04248007800F01F0001281BD13F481D
:102B00000079B8B93D484078FE2808D0FF2810D198
:102B1000FFF79EFB10B1FFF72FFF0DE009E0FFF775
:102B20009CFB28B1374836490860FFF7FAFE03E0FE
:102B300000BF00BF03E002E008E000E000BF80202B
:102B400000F09DF900202E49888000BF00BF48E0BA
:102B50002A480078C00900BB29488088F8B1FFF7EF
:102B6000FAFE27488088D0B924480078C0F3411085
:102B700028B1012810D103E02BE02EE010E0DEE7C1
:102B80001E48007800F01F00012802D0022802D160
:102B900000E0D4E7D3E7D2E7D1E7FFF7F4FE20E087
:102BA000164800780121B1EBD01F02D1FFF7B9FE22
:102BB0000EE00E48007800F0800048B10B48007825
:102BC00000F07F00094908700846007800F0DCF842
:102BD00007E0802000F05BF903E0002000F057F9E7
:102BE00000BF00BF10BD0000140600201606002024
:102BF00017060020180600201C06002038060020BA
:102C00003006002025060020200600202106002096
:102C100030B500F00F01F74C04EB8103D3F8002C22
:102C200000F0800343B148F6CF731340254605EB0F
:102C30008104C4F8003C07E04CF68F731340ED4D5F
:102C400005EB8104C4F8003C30BD70B500F00F0204
:102C5000E84D05EB8204D4F8003C00F080045CB140
:102C600001F030045C4048F6BF752C40E14E06EBA5
:102C70008205C5F8004C0AE001F440545C404BF674
:102C80008F752C40DB4E06EB8205C5F8004C70BDFD
:102C900008B514208DF8000000208DF802000120F6
:102CA0008DF803006846FEF73FFF08BD10B50446E7
:102CB0000120D14908600020091D08607CB1CF487F
:102CC000C06940F40000CD49C8610022C914CC4855
:102CD000FFF7A4F84FF48060C74908600DE00122B7
:102CE000D102C748FFF79AF80320C3490860C348D8
:102CF000C06920F40000C149C86110BD0020BE4970
:102D0000091D08604FF41C40091F08603020BD49B0
:102D100008800020B84910310860BA480088BA49D4
:102D200009680860B74800880830B6490880084636
:102D30000088B54909688860B24800880830B14900
:102D400008804FF48050B0490968C8604FF448507B
:102D5000A949403908608020A7490C3108607047B4
:102D6000A548006840F00800A349086008460068CC
:102D700040F00400086070479F48006820F0080099
:102D80009D4908607047704740F080019A4A0C32B4
:102D90001160704700BF704710B50246937803F08A
:102DA0000F019088937803F0800353B1954B1B88F3
:102DB000954C246804EB01142360431C23F00100AC
:102DC00020E0904B1B88904C246804EB0114A36016
:102DD0003E280ED900F11F0323F01F000123C3EB8F
:102DE000401343F40043884C246804EB0114E3606F
:102DF00008E0431C23F001004302834C246804EBE9
:102E00000114E3607F4B1B8803447E4C2380D378FE
:102E100003F0030333B1012B07D0022B08D0032B9F
:102E20000FD10BE04FF400700BE04FF4806008E02E
:102E3000002000230BB140F4807002E04FF4C0602A
:102E400000BF00BF08436B4C04EB8103C3F8000CC8
:102E500010BD704710B5044643F230012046FFF71D
:102E6000F4FE10BD10B5044600212046FFF7EDFE2C
:102E700010BD10B504462046FFF7CAFE10BD10B5C0
:102E8000044641F210012046FFF7DFFE10BD10B5E9
:102E9000044643F230012046FFF7D7FE10BD2DE96E
:102EA000F04305460C4605F00F065748006800EB56
:102EB000061080685549022202FB0019524800683A
:102EC00000EB06108089C0F309074FF0000805E009
:102ED00039F8041B2180A41C08F10108781CB8EB08
:102EE000500FF5D34FF440512846FFF7AEFE384659
:102EF000BDE8F0832DE9F04306460D46144606F082
:102F00000F074148006800EB071000683F490222A4
:102F100002FB00194FF0000805E0288849F8040B6F
:102F2000AD1C08F10108601CB8EB500FF5D3364812
:102F3000006800EB0710446030213046FFF785FE43
:102F40002046BDE8F08370B52B48001D066806F4E6
:102F5000806040B1FFF7D2FEFFF758F96FF4806050
:102F60002549091D086006F4006040B1FFF7F8FE2E
:102F7000FFF750F96FF400601F49091D086006F45F
:102F8000805040B1FFF7F8FEFFF745F96FF480502D
:102F90001949091D086006F4007020B16FF4007033
:102FA0001549091D086050E06FF400401249091DE1
:102FB000086006F00F040F4901EB8400D0F8005CB4
:102FC00005F4004058B325F4004048F68F710840DE
:102FD000084A02EB8401C1F8000C0D4850F82400A7
:102FE000E8B105F40060A8B1094850F824100120A8
:102FF000884714E000500040405C00400010024050
:1030000000100140440600204006002000600040FF
:10301000B8A20008114850F824100220884705F093
:10302000800090B125F0800048F68F7108400C4A6E
:1030300002EB8401C1F8000C084850F8240020B1CC
:10304000064850F8241003208847064800680646C2
:1030500000F400400028A7D170BD0000B8A200080D
:1030600000500040445C0040704770B504460D4677
:1030700072B63BA1204606F003FA18B962B648F2D0
:10308000010070BD38A1204606F0FAF918B962B601
:1030900048F20200F5E736A1204606F0F1F918B92A
:1030A00062B648F20300ECE762B62946204600F01B
:1030B000E7FBE6E710B5044672B6B4F5004F02DD53
:1030C00062B6002010BD62B6204600F057F8F9E75E
:1030D0002DE9F04104460D4616461F4672B6B4F57A
:1030E000004F04DD62B64FF0FF30BDE8F08162B6FC
:1030F00032462946204600F0B9FDF6E7014672B691
:10310000B1F5004F02DD62B60120704762B60020C3
:10311000FBE770B504460D4672B6B4F5004F03DD0B
:1031200062B64FF0FF3070BD62B62946204600F00F
:1031300005FDF8E710B5044672B6B4F5004F01DDA1
:10314000002010BD04EB840101EBC4010A4A02EB2C
:103150008100002100F08CFCF3E700BFFEE70000D7
:10316000535444494E0000005354444F55540000FA
:103170005354444552520000DCD000207CB5064632
:103180001F48AFF3008006EB860000EBC6001D4928
:1031900001EB8004207904280CD1A07800F0020013
:1031A00018B3204603F00FF9F8B9002020806080A2
:1031B000451E1FE0A07800F00200B0B1A07800F03A
:1031C000200090B1606900902088ADF80400608A0A
:1031D000ADF80600228AE16851F83210A269881819
:1031E00023460822694600F037FA002020806080DC
:1031F000002500BF0248AFF3008028467CBD0000D8
:1032000000000000DCD000202DE9F0418AB0064625
:103210000C460027002533E02146284600F0E9F857
:10322000804608A9404600F09DF98046089880F045
:103230000F00A16888421BD12146284600F040F9C2
:10324000012800D11BE02146284600F00EF968B99C
:10325000A06880F0FF000890E16801EBC5012346FB
:103260000422486808A900F0F7F908E06F1C0AE09A
:103270000898A168884201D107B96F1C00BF6D1C76
:10328000E088A842C8D800BF1FB901200AB0BDE835
:10329000F081781E2082204600F03FF9208A2146E6
:1032A00000F0A7F8804608A9404600F05BF90898AE
:1032B000A16888420AD1A06880F00F00089028F029
:1032C00001002346042208A900F0C6F9002503E006
:1032D000705D0DF805006D1C705D08B11F2DF7D3F2
:1032E00000200DF80500281D20F00305228AE16862
:1032F00051F832106269881823462A46694600F060
:10330000ABF960692844606160690890208840F4E6
:103310000040ADF824000020ADF82600228AE168C4
:1033200051F83210A26988182346082208A900F033
:1033300093F9A0690838A0610020A7E7FEB504460C
:10334000A068C0430090278A002538E0214638460F
:1033500000F04FF8064601A9304600F003F9064692
:103360000198A168884223D000BF01A9304600F02F
:103370002BF80646BDF80800C0F30E0021888842ED
:1033800008D126F0010101F10C0023460422694610
:1033900000F062F90198A1688842E6D121463846DA
:1033A00000F015FA012803D12146384600F031FA21
:1033B000781C0746E188884200D100276D1CE08810
:1033C000A842C3D80020FEBD70B504460D4604F0E7
:1033D000010030B124F001002A46082103F04BFA25
:1033E00004E02E462068306060687060A4F1080038
:1033F00070BD0246CB6803EBC20358680B79022B01
:1034000001D140F0010070472DE9FC4104460E4611
:1034100044F4004448F2010521E0002717E031465A
:103420003846FFF7E6FFA0F1080800BF69464046AE
:10343000FFF7CAFF8046BDF80400A84200D10DE0A6
:103440000098B1688842F1D100BF00BF7F1CF088AE
:10345000B842E4D8C5F30E00BDE8FC816D1CA5425E
:10346000DBD3601CC0F30E00F6E72DE9FC410646F5
:103470000C4621463046FFF7BCFFA0F108074FF08D
:10348000000800BF69463846FFF79EFF07460098D0
:10349000A168884200D102E0DDF80080F2E700BFB9
:1034A000E06850F8361027F001000830401AA0EB11
:1034B0000805FF2D02D80020BDE8FC812846FBE767
:1034C00010B502460B46002121E001EB810000EB24
:1034D000C100E64C04EB8000984200D116E001EBFD
:1034E000810000EBC100E14C04EB8000807800F02B
:1034F000020050B101EB810000EBC10004EB800041
:10350000008A904201D1012010BD00BF491CD8485B
:1035100000888142D9D30020F6E77CB50446208A92
:103520002146FFF766FFA0F10805002600BF6946A7
:103530002846FFF749FF05460098A168884200D158
:1035400001E0009EF3E700BFF01C20F00300606183
:10355000218AE06850F8311025F001000830401A47
:10356000A0617CBD70B504460D4604F0010030B189
:1035700024F001002A46042103F07DF901E02068CF
:103580002860A4F1080070BD2DE9F0478AB081469B
:103590000C464FF40048002559E021462846FFF725
:1035A00028FF064608A93046FFF7DCFF06460898C4
:1035B000A16888424AD04FF0000A00BF08A93046EF
:1035C000FFF702FF0646BDF82400B0F5004F34DDDA
:1035D000BDF824004FF6FF7188422EDAE06850F8FB
:1035E000350000EB0A07F81C20F0030706F0010085
:1035F00028B16A462021384603F03DF904E06A46C6
:103600002021384603F071F800208DF81F0069462C
:10361000484603F057F8012809D1BDF82400C0F34B
:103620000E002080258200200AB0BDE8F087BDF89A
:103630002400404501D9BDF824800898A16888423B
:1036400000D102E0DDF820A0B8E700BF6D1CE088E3
:10365000A842A2D84046E7E72DE9F04107460D46CB
:1036600014461E464FF00108E01C20F00304307998
:10367000012804D0022809D0032815D10DE02A46DC
:103680002146384603F0EFF880460DE02A462146F1
:10369000384603F0FAF8804606E02A4621463846C6
:1036A00003F02EF8804600BF00BFB8F1000F02D033
:1036B0000020BDE8F0810120FBE71CB50446A069AD
:1036C00008386169884201D900201CBD60690090FA
:1036D0002088ADF80400608AADF80600608A401CBE
:1036E0006082228AE16851F83210A2698818234664
:1036F00008226946FFF7B0FFA06880F0FF00009045
:10370000228AE16801EBC201234604224868694627
:10371000FFF7A2FF0120D8E7F8B50446258A002765
:1037200050E021462846FFF764FE064669463046CB
:10373000FFF718FF0646A0680099884218D1258235
:1037400000206061E06850F8350026F00101081A99
:10375000A061009880F00F00009026F0010101F1B7
:103760000800234604226946FFF776FF0120F8BDD2
:10377000009880F00F00A16888421CD1214628469D
:10378000FFF79EFEB8B921462846FFF76EFE28B126
:1037900025822046FFF7C1FE0120E8E7A06880F0FF
:1037A000FF00009026F0010101F1080023460422E9
:1037B0006946FFF751FF681C0546E188884200D141
:1037C00000257F1CE088B842ABD80020CFE72DE968
:1037D000FC4105460C462089C04387B22146284655
:1037E000FFF707FEA0F1080600BF69463046FFF765
:1037F000EBFD06460098A168884200D106E0BDF8BE
:103800000400B842F1D00020BDE8FC8100BF0120D7
:10381000FAE72DE9F04105460E463079012804D03B
:10382000022809D003281CD10DE0124850F8354079
:10383000204603F014F814E00F4850F835402046B5
:1038400003F01FF80DE00D4800EBC50047680B487A
:1038500050F8354002E000202060241DBC42FAD917
:1038600000BF00BF0120BDE8F0810000DCD00020D7
:10387000A0A30008A8A30008BCA30008CCA30008CC
:103880002DE9F047824688467548AFF3008002F084
:103890006AFF0746401C10B94FF0FF36D9E007EB2E
:1038A000870000EBC7006F4901EB8004504602F02F
:1038B00032FF2071207910B10AF1020A02E06A4851
:1038C0000078207108F0020000B1A6E008F00C00BA
:1038D00008B1022000E00120608008F0080018B163
:1038E000608840F004006080207904280AD12146D5
:1038F000504602F032F9012801D0012000E00020FA
:1039000081460BE0204602F045FF00B985E000202B
:10391000608221465046FFF737FE8146B9F1000F1D
:1039200076D100254CE0BD4200D148E005EB850092
:1039300000EBC5004B4901EB8000807800F00300EC
:1039400000B93CE005EB850000EBC500454901EB03
:10395000800000792179884200D030E005EB8500B5
:1039600000EBC5003F4931F820002188884200D093
:1039700025E005EB850000EBC5003A4901EB80002E
:10398000007904280AD105EB850000EBC50001EBA6
:103990008000806AA16A884200D010E005EB8500B3
:1039A00000EBC5002F4901EB8000807800F0020099
:1039B00018B9A07800F0020000B12EE000BF6D1C25
:1039C0002A4800888542AED3A07800F0040030B1C8
:1039D0000121204600F04CF8E0623E4639E02079B3
:1039E000042808D1A07800F0020078B121465046A2
:1039F00002F092FB19E0A07800F0020020B120460E
:103A0000FFF79CFC1DE003E06069A0613E4620E0FA
:103A1000A07800F0010020B100BF00206080461EA9
:103A200017E02079042806D100BF2146504602F055
:103A3000CDF960B9F1E721464846FFF7E5FC208063
:103A400000BF21465046FFF7DFFB00B1E5E73E46E9
:103A500000BF0348AFF300803046BDE8F0870000A8
:103A600000000000DCD00020A2A30008A0A30008F2
:103A70002DE9FE4F04460F462F48AFF30080207912
:103A8000042801D1E66A51E0A07800F0040010B1EA
:103A90000FB9E66A4AE00025A946B4F8108000BFD5
:103AA0004FF0000A3AE021464046FFF7A2FC0090A2
:103AB00001A90098FFF756FD00900198A16888427F
:103AC00022D04FF0000B00BF01A90098FFF77CFC4B
:103AD0000090BDF80800218888420CD1BDF80A008A
:103AE000A84208D10BF1030020F003000199081A45
:103AF00081446D1CD4E70198A168884200D102E09E
:103B0000DDF804B0E0E700BF08F101008046E1887D
:103B1000884201D14FF000080AF1010AE0885045BF
:103B2000C1D8012F00D165824E4600BF0248AFF3D5
:103B300000803046BDE8FE8F000000002DE9F34F05
:103B400083B00E464748AFF30080039800EB800136
:103B500001EBC000444901EB8004207904280AD11C
:103B60003146204602F075FC012801D1002572E0A3
:103B70004FF0FF356FE0A07800F0020080B1A07830
:103B800000F0040048B1E06AB04206D12046FFF7D9
:103B9000C3FD012801D100255DE04FF0FF355AE05B
:103BA0004FF00008C246278A00BF4FF0000B4CE0E0
:103BB00021463846FFF71DFC009001A90098FFF749
:103BC000D1FC00900198A168884236D04FF00009DE
:103BD00000BF01A90098FFF7F7FB0090BDF80800AF
:103BE0002188884220D1BDF80A0040451CD109F146
:103BF000030020F0030908F101080198A0EB090077
:103C00005044B04204D20198A0EB09008244CCE7B2
:103C10002782A4F8128009EB0600A0EB0A0060617D
:103C20000198A061002516E00198A168884200D1A2
:103C300002E0DDF80490CCE700BF781C0746E1887D
:103C4000884200D100270BF1010BE0885845AFD81E
:103C50004FF0FF3500BF0348AFF30080284605B0A2
:103C6000BDE8F08F00000000DCD000202DE9FC470B
:103C70008146884615464048AFF30080B8F1000FF2
:103C800002D14FF0FF3671E009EB890000EBC9006B
:103C90003A4901EB8004207904280AD12A4641469A
:103CA000204602F0B9FA10B94FF0FF365EE0002668
:103CB0005CE04FF0000A05F0030008B14FF0010A84
:103CC00025E0D4E90510401AA0F10807AF4200D959
:103CD0002F46ED1B228AE16851F83210626988187C
:103CE00023463A464146FFF7B7FCB844606938447A
:103CF00060612046FFF7E1FC012808D12046FFF76C
:103D00000BFD10B94FF0FF3630E005B928E0002D6B
:103D1000D7D1BAF1000F04D1608840F02000608054
:103D200022E0606900902088ADF80400608AADF858
:103D30000600608A401C6082228AE16851F83210D5
:103D4000A2698818234608226946FFF785FCA06906
:103D50000838A0616069C01C20F00300606100BFEA
:103D6000608820F020006080002600BF0248AFF38A
:103D700000803046BDE8FC8700000000DCD0002059
:103D800010B50446F748012281682046FDF7B8F8CF
:103D9000012803D1F3480460012010BD0020FCE796
:103DA00010B50446F048008840B92CB12046FFF712
:103DB000E7FF08B9002010BD0120FCE784B9E948FD
:103DC000007C58B1E74B1A7CD9685868FDF798F821
:103DD00008B90020EFE70020E24908740120EAE773
:103DE000E0480460007C00282ADDDE484068DD49A8
:103DF000097C0844A04217D1DA48007CDA490988D6
:103E0000884211DAD74AD368127C03EB4220D54AA4
:103E100091684FF4007205F06BFAD248007C401CA8
:103E2000D04908740120C6E7CE4B1A7CD96858687F
:103E3000FDF766F808B90020BDE70020C9490874FD
:103E4000C84A9168D0684FF4007205F051FAC5482D
:103E500044600120C3490874002048740120AAE787
:103E60000A124270017070470A0EC2700A0C82700A
:103E70000A0A42700170704710B5BA4988684FF459
:103E8000007105F0B4FAB7498868B849FFF7ECFF4C
:103E9000B449896801F5F270B549FFF7E5FFB1490A
:103EA000896801F5F470B3490968FFF7DDFFAD4992
:103EB000896801F5F670B0490968FFF7D5FFA9498F
:103EC000896801F5FF704AF65521FFF7C9FFAB4934
:103ED0000968AA4A928D8818FFF762FF08B9002086
:103EE00010BD0120FCE710B50446A5480068A042BB
:103EF00001D1012010BDA248007A01281CD1A04A9E
:103F0000516810680122FCF7FBFF08B90020F1E7B7
:103F10009A48407902280CD1994A1268974B1B891C
:103F2000D018974A51680122FCF7EAFF08B900202F
:103F3000E0E70020924908720CB90120DAE79048C6
:103F4000012241682046FCF7FFFF012803D18C487D
:103F500004600120CEE74FF0FF308949086000205F
:103F6000C8E7024685480079012804D0022806D017
:103F7000032808D105E002EB4200810A05E0110A9E
:103F800003E0D10901E00020704700BF7B480089B1
:103F9000884201D80020F7E778480068774B5B89B2
:103FA000184401440846EFE7014608784A7840EA99
:103FB000022070472DE9F041002770480079012860
:103FC0003BD1022432E02046FFF7CBFF05462846CE
:103FD000FFF789FF10B93846BDE8F08104EB4400D3
:103FE000C0F34808B8F5FF7F07D86549496801EB79
:103FF0000800FFF7D9FF06460EE06148406890F8D8
:10400000FF61681CFFF76FFF08B93846E4E75C48BA
:104010004068007846EA002604F0010008B136093D
:1040200001E0C6F30B0606B97F1C641C5348806987
:10403000801CA042C7D83846CEE7504800790228F5
:1040400022D1FFF78EFF05462846FFF74CFF08B93F
:104050003846C1E7022410E0E0B230B96D1C2846B2
:10406000FFF741FF08B93846B6E745484068E1B276
:1040700030F8110000B97F1C641C40488069801C26
:10408000A042E9D83846A7E73C480079032825D163
:104090000220FFF766FF05462846FFF724FF08B910
:1040A000384699E7022412E004F07F0030B96D1C15
:1040B0002846FFF718FF08B938468DE730484068B2
:1040C00004F07F0150F8210000B97F1C641C2B48CC
:1040D0008069801CA042E7D838467DE700207BE756
:1040E0000146C87800068A7840EA02404A7840EAE9
:1040F00002200A781043704710B50446194800683A
:10410000A04201D1012010BD16484068A04216D837
:10411000144840681349097C0844A0420FD9114A49
:10412000D3685268A21A03EB42210E4A90684FF4FA
:10413000007205F0DDF80B4804600120E3E7094850
:10414000012281682046FCF7FFFE012803D10548C3
:1041500004600120D7E74FF0FF30024908600020DB
:10416000D1E700001CD50020D6A3000852526141BF
:1041700072724161480600204C06002030D50020B4
:1041800010D5002010B5FE490968FD4A928D8818A7
:10419000FFF7B2FF08B9002010BDFA49896801F5A0
:1041A000FE70FFF79DFFF849884201D00020F3E739
:1041B000F4498868FFF794FFF449884201D0002051
:1041C000EAE7F049896801F5F270FFF789FFF049E5
:1041D000884201D00020DFE7EA49896801F5F470E0
:1041E000FFF77EFF0446E6488069A04201D2002026
:1041F000D2E7E8480460E349896801F5F670FFF703
:104200006FFF0446022C03D3DD488069A04201D22F
:104210000020C1E7E04804600120BDE7D848C08A1B
:10422000B0F5007F01D000207047D5488079102874
:1042300014D008DC01280DD002280CD004280BD0A3
:1042400008280FD109E0202809D0402808D080286C
:1042500008D106E000BF00BF00BF00BF00BF00BF25
:1042600000BF01E00020DFE700BFC548408908B972
:104270000020D9E7C2484079012802D0022802D1A3
:1042800000E000BF01E00020CEE700BFBC4800898D
:10429000BB49C968884201D90020C5E70120C3E7AE
:1042A00010B5B7490868FFF727FF08B9002010BD0F
:1042B000B449896801F5FF70FFF776FE4AF655218B
:1042C000884201D00020F2E7AE488068407BAC49CC
:1042D0008871AC49896801F10B00FFF765FEA849B8
:1042E000C882A849896801F10E00FFF75DFEA44964
:1042F0004881A4488068007C4871A249896801F11E
:104300001100FFF751FE9E4988829E49896801F19C
:104310001300FFF749FE9A49C8609A49896801F17C
:104320001600FFF741FE964908810846C06810BB99
:1043300008460089F8B99349896801F12800FFF718
:1043400033FE8F49C8848F49896801F12C00FFF73B
:10435000C7FE8B4988628B49896801F13000FFF7FD
:1043600023FE874988858749896801F13200FFF774
:104370001BFE8349C8858248C06838B9814989686D
:1043800001F12000FFF7ACFE7D49C8607C48008940
:1043900038B97C49896801F12400FFF7A1FE78490A
:1043A0000881012083E710B50020FFF7A5FE08B9BA
:1043B000002010BD7349896801F5FF70FFF7F4FD17
:1043C0004AF65521884201D00020F2E76D48806806
:1043D0000078E92809D06B4880680078EB2808D17C
:1043E000684880688078902803D10020644908607C
:1043F00007E06449896801F5E370FFF771FE6049E1
:1044000008600120D5E710B54FF0FF306349086020
:104410006348486000200872401E5A49086061489D
:10442000886000F50070C86000200874487402209D
:10443000594908603021524804F0FBFFFFF7B3FFF1
:1044400008B9022010BDFFF72BFF08B90320F9E7D8
:10445000FFF7E4FE08B90420F4E74948C18A808ADE
:1044600001EB4010401E4649C98A90FBF1F44448D4
:10447000408943494979424A128901FB020020449C
:104480003F49C968081A3E490861084600698979A8
:10449000B0FBF1F03A498861084640894979384AC9
:1044A000128901FB020036498883CC830846807953
:1044B000C98A4843324908620846006AC0F34F106F
:1044C00088840846806940F6F571884203D201204D
:1044D0002B49087118E02A4880694FF6F571884227
:1044E00003D20220264908710EE0032024490871F6
:1044F000FFF748FE40B9FFF75DFD26490860FFF76A
:10450000BBFC08B905209DE700209BE770B500249F
:104510000025FFF778FF70BD10B50446302218491A
:10452000204604F02AFF10BD70B502F089F8064657
:10453000C6F344041D2C00D900242546C6F30524E7
:104540003B2C00D9002445EA4415C6F30444172C3B
:1045500000D9172445EAC425A8B270BD70B502F091
:104560008BF8064606F01F0404B901242546C6F35D
:1045700003240C2C00D804B9012445EA441513E0A7
:1045800030D500201CD50020000055AA52526141B0
:1045900072724161480600204C06002010D50020B0
:1045A00010D1002010D3002040F2BC70C0EB1644A4
:1045B00004F07F0445EA4425A8B270BD01463029C5
:1045C00001DB392907DD412901DB5A2903DD5F2998
:1045D00001D0202901D108467047612904DB7A29DE
:1045E00002DC21F02000F7E70020F5E72DE9F04795
:1045F00007468846FE488568002407E0385DFFF7D7
:10460000DDFF064606B903E02E55641C0B2CF5D3DE
:1046100000BF02E020202855641C0B2CFAD3082090
:10462000E872FFF79BFF8146494605F11800FFF746
:1046300017FCFFF779FF8146494605F11600FFF7A1
:104640000FFC4046FFF7ACFB10B90020BDE8F08737
:10465000E7498868202104F0CAFE0120F6E710B57A
:104660000446E34988684FF4007104F0C0FEE92075
:10467000DF49896808700020DD498968487090200A
:10468000DB4989688870DA488068DAA10A6840F8EE
:10469000032F49684160D649896801F10B004FF446
:1046A0000071FFF7DDFBD6488079D14989684873EE
:1046B000D348807ACE49896888730220CC498968BA
:1046C0000874CF480079032807D0C949896801F1E7
:1046D00011004FF40071FFF7C3FBC948C068B0F583
:1046E000803F09D2C64A928991B2C14A926802F1CA
:1046F0001300FFF7B5FB07E0C14AD168BC4A9268D6
:1047000002F12000FFF7B0FBF820B949896848752D
:104710003F20B74989680876FF20B54989688876BF
:10472000B74A1168B24A926802F11C00FFF79CFB7D
:10473000B348007903283AD0B14A1189AC4A92684B
:1047400002F11600FFF78CFB8020A949896881F8E7
:1047500024002920A649896881F82600A44989688F
:1047600001F127002146FFF77FFBA1488168A5A042
:10477000026841F82B2F42684A6002890A81807AD8
:1047800088729F480079012808D199488068A0A1C3
:104790000A6840F8362F496841604AE094488068CA
:1047A0009EA10A6840F8362F4968416041E0944A6A
:1047B00011898F4A926802F12400FFF755FB8C495A
:1047C000896801F12C000221FFF74EFB88498968B6
:1047D00001F130000121FFF743FB8549896801F1B0
:1047E00032000621FFF73CFB80208149896881F86F
:1047F000400029207E49896881F842007C49896807
:1048000001F143002146FFF72FFB794880687DA125
:104810000A6840F8472F4A6842600A890281897A0B
:1048200081727348806880A10A6840F8522F4968F5
:1048300041606F49896801F5FF704AF65521FFF71D
:104840000FFB6F490868FFF7ABFA08B9002010BDED
:104850006B480079032807D169490968881DFFF76B
:104860009FFA08B90020F2E70120F0E770B504468E
:104870005F4988684FF4007104F0B9FD00205C497D
:10488000896881F8BE0101205949896881F8BF0112
:104890005749896801F5E0700121FFF7E1FA5848AE
:1048A0000079012804D0022808D003281AD113E087
:1048B00001204F49896881F8C20113E0032C05D219
:1048C00004204B49896881F8C20104E00620484968
:1048D000896881F8C20105E00B204549896881F8A3
:1048E000C20100BF00BF04EB4400524901EB80004D
:1048F0000079401E3E49896881F8C30104EB4400F9
:104900004C4901EB8000817904EB4400494A02EBF9
:1049100080000089401E41EA8015A9B2344A92689D
:1049200002F5E270FFF79CFA354A1168304A926846
:1049300002F5E370FFF798FA314AD1682C4A926881
:1049400002F5E570FFF790FA2949896801F5FF70D3
:104950004AF65521FFF784FA0020FFF711FA70BDDF
:1049600070B505460C460AE014F8011B2F2906D144
:104970002146284601F0A6FE012800D170BD20780E
:104980000028F1D100BFF9E770B5064600201849AC
:10499000087448742848058805B901256902144A35
:1049A0009068FF2204F01BFD002409E010482A460D
:1049B00081682046FCF7A4FA08B9002070BD2C4499
:1049C000B442F3D30120F9E710B501460C48006862
:1049D0000B4CA48B02190A480079032802D008481E
:1049E000C08B0244881E064CA47900FB04F325E02A
:1049F0001CD500204D5357494E342E310000000085
:104A000030D500204E4F204E414D45202020200023
:104A100046415431322020200000000046415431EC
:104A20003620202000000000464154333220202050
:104A300000000000D8A30008D6A30008D01810BDBD
:104A40002DE9F04705460026D5F81C80FFF76CFDE0
:104A50008146FFF783FD8246F94988684FF400716B
:104A600004F0C5FCF64884680B22F6A1204604F049
:104A700084FC1020E072494604F10E00FFF7F0F9C3
:104A8000514604F11000FFF7EBF9514604F1120012
:104A9000FFF7E6F9494604F11600FFF7E1F9514640
:104AA00004F11800FFF7DCF92022214604F1200070
:104AB00004F063FCE869010C04F11400FFF7D0F97D
:104AC000A88B81B204F11A00FFF7CAF920342E2016
:104AD0006070DF480068010C04F11400FFF7C0F9B2
:104AE000DB48008881B204F11A00FFF7B9F94046AB
:104AF000FFF76AFF07463846FFF742F910B9002072
:104B0000BDE8F087CE498868402104F070FC01269A
:104B100006E0B819FFF734F908B90020F0E7761C71
:104B2000CC488079B042F4D8022028800120E7E701
:104B300070B505462846FFF747FF0646C049886816
:104B40004FF4007104F053FC002406E03019FFF725
:104B500027F908B9002070BD641CBE488079A042C6
:104B6000F4D80020FFF71CF908B90020F3E7012072
:104B7000F1E72DE9F04106460C463046FFF7F1F922
:104B800080464046FFF7AFF910B90020BDE8F0813C
:104B9000B0480079012804D0022855D0032874D1E8
:104BA0005BE0C4F30B0406EB4600C0F34805B5F523
:104BB000FF7F18D8A84949684819FFF7F5F9074653
:104BC00006F0010020B1384664F31F10074603E0E9
:104BD00007F4704040EA0407B9B29F4A526850197E
:104BE000FFF73EF92FE006F0010050B19A48406807
:104BF00090F8FF0164F31F109749496881F8FF019D
:104C000003E09549496881F8FF4101209249087203
:104C100008F101084046FFF766F908B90020B5E73A
:104C200006F0010028B1C4F307108B4949680870E9
:104C300009E089484068007800F0F00040EA14205C
:104C400085494968087022E03006C50DA1B2824A44
:104C500052685019FFF704F919E07006C50D7E4936
:104C600049684819FFF73CFA38B97C48006820B118
:104C70007A480068401E79490860774949684819B0
:104C80002146FFF7F1F802E0FFE700207EE700BFD2
:104C900001207149087200BF78E76E480079012849
:104CA00004D0022805D0032809D105E040F6FF70A2
:104CB00070474FF6FF70FBE76FF07040F8E7002099
:104CC000F6E710B5024666480488002365490CE003
:104CD000887800F0020000B905E0886A904201D1AE
:104CE000012010BD00BF34315B1CA342F0D3002073
:104CF000F7E72DE9F04107463C685B4804685AE055
:104D00002046FFF72EF980464046FFF7ECF810B931
:104D10000020BDE8F0814F480079012804D0022826
:104D200028D0032838D12EE004EB4400C0F3480516
:104D3000B5F5FF7F06D8484949684819FFF734F9A7
:104D400006460FE04448406890F8FF6108F1010012
:104D5000FFF7C9F808B90020DBE73F484068007852
:104D600046EA002604F0010008B1360901E0C6F366
:104D70000B0613E02006C50D374949684819FFF7AF
:104D800013F906460AE06006C50D3349496848191B
:104D9000FFF7A6F9064601E00020BAE700BF4EB9CA
:104DA0002046FFF78EFF28B93C60601C2E49086042
:104DB0000120AEE7641C27488069801CA0429FD870
:104DC000294804600020A4E72DE9F04104460D467F
:104DD00026682046FFF78DFF10B90020BDE8F0815E
:104DE000FFF75BFF074639462068FFF7C2FE08B9A8
:104DF0000020F3E735B130462168FFF7BAFE08B965
:104E00000020EBE70020FFF76EF808B90020E5E787
:104E10000120E3E730B5024600200CE00C5C04B949
:104E20000BE00C5C114D2D5C545500250F4C245C9F
:104E3000641C1555401C0D28F0D300BF002320E052
:104E40001CD500202E2020202020202020202000E3
:104E50005006002030D5002010D500204806002044
:104E6000A0A30008DCD000204C06002074A4000899
:104E7000FE4C245C1355FD4C245C641C1355FF232D
:104E8000401C0D28F4D330BD10B50246002000218F
:104E90000BE000F001030BB1802300E0002303EBE3
:104EA0006003545C2344D8B2491C0B29F1D310BDD4
:104EB0000146202901DB212919DD232901DB2929CC
:104EC00015DD2D2913D02E2911D0302901DB3929E8
:104ED0000DDD40290BD0412901DB5A2907DD5E2970
:104EE00001DB7B2903DD7D2901D07E2901D1012051
:104EF00070470020FCE710B504462046FFF7D8FFB6
:104F000008B9582010BD2046FCE72DE9F0470446BB
:104F10000E464FF0000A002502E0202070556D1C5F
:104F20000B2DFAD30020705594F80080677894F820
:104F30000290B8F12E0F0FD127B92E20307001202A
:104F4000BDE8F0872E2F07D1B9F1000F04D12E2034
:104F5000307070700120F3E7002520E0207808B958
:104F60000120EDE720782E2803D14FF0010A641CC0
:104F700017E02078202801D1641C10E02078FFF78A
:104F8000BAFF7055705D612806DB705D7A2803DC1E
:104F9000705D20F0200070556D1C641C00BF082D52
:104FA000DCD300BF082523E0207808B90120C7E73B
:104FB00020782E2803D14FF0010A641C18E02078D5
:104FC000202801D1641C13E0BAF1000F0ED0207824
:104FD000FFF791FF7055705D612806DB705D7A28E0
:104FE00003DC705D20F0200070556D1C641C00BF58
:104FF0000B2DD9D30120A3E710B503460A460021A3
:105000000BE0585C545C604020F0200008B10020A8
:1050100010BD505C00B902E0491C0B29F1D300BF60
:105020000120F5E710B503460A4600210DE08F4840
:10503000405C185C545C604020F0200008B1002007
:1050400010BD505C00B902E0491C0D29EFD300BF30
:105050000120F5E7014686480079012804D002289E
:1050600009D0032816D10DE040F6F870814201D333
:10507000012070470EE04FF6F870814201D3012005
:10508000F7E707E021F070407A4A904201D301200F
:10509000EFE700BF00BF0020EBE72DE9F041074636
:1050A0003E683046FEF75DFF80464046FEF71BFF38
:1050B00010B90020BDE8F08100256D480079012875
:1050C00004D0022828D0032832D12BE006EB46007A
:1050D000C0F34804B4F5FF7F06D86749496808194A
:1050E000FEF762FF05460FE06348406890F8FF5105
:1050F00008F10100FEF7F7FE08B90020DAE75E4884
:105100004068007845EA002506F0010008B12D0945
:1051100001E0C5F30B050DE03006C40D56484068AC
:10512000055B07E07006C40D53484068055901E06F
:105130000020BFE700BF3D600120BBE770B505461A
:1051400000204E490870A5B94D49086048480079CB
:10515000032805D14649886AFFF736FC04460CE06F
:10516000434800684249898B44180120434908702C
:1051700003E02846FFF728FC0446204670BD2DE9D1
:10518000F04704460027B8460026B14632E02078B2
:10519000FFF78EFE00B933E02078202800D12FE001
:1051A00020782E2806D107B12AE0641C4FF00009B0
:1051B00001271FE02578612D01DB7A2D03DD412DCC
:1051C0000BDB5A2D09DCB8F1000F05D088EA050089
:1051D00000F0200000B113E0A8462FB1484609F1C5
:1051E0000109022803D90BE0082E00D308E0761C41
:1051F000641C00BF20780028C9D10C2E03D300BF47
:105200000120BDE8F0870020FBE72DE9FF4F8FB0BC
:105210000D46994600200A901198012800D100E01F
:105220000020099001274FF0000A00200890079005
:1052300006904FF00108E869059000200490039063
:105240000F49E86908600F98FFF799FF012809D115
:105250000F9804F02EF80C300D21B0FBF1F0404413
:1052600000F0FF080BA90F980CE0000074A40008E0
:1052700030D50020F8FFFF0F10D500205B0600207E
:1052800050060020FFF741FEC0B208900598FFF7D6
:1052900055FF0290002600BFF948007830B1B6F5FE
:1052A000007F1FD1002013B0BDE8F08FF548808C3F
:1052B000B04217D10026F348806A0599884202D986
:1052C000F048806A059005A8FFF7E7FE08B90020BE
:1052D000E9E70598FFF7BEFE00B194E00598FFF7F7
:1052E00073FB0290029901EB1610FEF705FF08B957
:1052F0000020D8E7E448806806F00F0100EB411475
:10530000207800B97FE02078E52800D179E0E07AC4
:10531000082800D175E0E07A0F2814D1207800F039
:10532000400080B101200A900127207820F0400041
:10533000401C404500D000270598049003960020AB
:105340000690607B0790E07AC0F30010099948400E
:1053500008B9012000E0002082460A98A0B3069810
:10536000401CC0B20690E07A0F2814D000200A90AA
:105370006FB12046FFF788FD0799884207D1BAF13F
:10538000000F08D0B9F1000F00D03EE03FE0B8F1C7
:10539000010F00D126E007B933E0617B0798814215
:1053A00001D000272DE0207800F01F00401E00EB08
:1053B000800101EBC00001900F9A0198111820465E
:1053C000FFF730FEC7B21BE0FFE7B8F1010F17D1BE
:1053D00005980490039601200690BAF1000F00D1C1
:1053E0000FE000BF089800B90BE00BA92046FFF7BB
:1053F00003FEC7B227B1B9F1000F00D005E006E007
:1054000000BF761C48E700204DE701204BE7E07A1B
:10541000687104F11A00FEF7C7FD834604F1140019
:10542000FEF7C2FD0BEB0040E8612E800598286274
:10543000964904980860964903980880954906980B
:1054400008700020286304F11C00FEF749FEE862A2
:10545000012028E770B504460D4616460123324662
:1054600029462046FFF7D1FE70BD2DE9F84F83464F
:105470000F4614464FF000084FF6FF700090864824
:10548000844202DD4FF0060A18E042F20F708442B7
:1054900002DD4FF0050A11E0B4F57A7F02DB4FF030
:1054A000040A0BE0632C02DD4FF0030A06E0092C2E
:1054B00002DD4FF0020A01E04FF0010A4FF000094F
:1054C00007E01BF809002E2801D1CDF8009009F162
:1054D00001091BF809000028F3D10CB94FF0FF3A7D
:1054E0004FF0000900261DE01BF80980B8F1200FDD
:1054F00002D0B8F12E0F00D112E0B8F1000F00D1A8
:1055000017E0B8F1610F04DBB8F17A0F01DC28F085
:1055100020084046FFF7EFFC3146761C785400BF68
:1055200009F101090098814503D2CAF10700B04290
:10553000DAD800BF04B965E07E223046761C3A54C2
:10554000BAF1070F5CD2DFE80AF05B544636251645
:1055500004005148401C94FBF0F540116843A4EB53
:105560004014092D00D9092505F13000C2B230469A
:10557000761C3A5400BF42F2107094FBF0F5001113
:105580006843A4EB001405F13000C2B23046761C2B
:105590003A5400BF4FF47A7094FBF0F505EB4500E8
:1055A000C0EBC510A4EBC00405F13000C2B2304618
:1055B000761C3A5400BF642094FBF0F505EBC5005F
:1055C00000EB0510A4EB800405F13000C2B23046B8
:1055D000761C3A5400BF0A2094FBF0F505EB8500D9
:1055E000A4EB400405F13000C2B23046761C3A54B8
:1055F00000BF04F13000C2B23046761C3A5400BFFE
:1056000000BF00BFB8F1000F00D128E02E223046C5
:10561000761C3A544FF6FF71009888421ED00098CD
:1056200000F1010915E01BF80980B8F1000F00D165
:1056300013E0B8F1610F04DBB8F17A0F01DC28F058
:1056400020084046FFF757FC3146761C785409F194
:1056500001090098001D8145E5D300BF00BF00206F
:10566000B8550120BDE8F88F2DE9FF4F8FB00E46E9
:105670001F4600200690119801280FD10FE000006E
:105680005B06002030D500201CD5002054060020E9
:10569000580600205A0600209F8601000020059031
:1056A0000F98FFF76CFDC0B2049000200390F848FB
:1056B00000680290F74805880F9803F0FAFD8146CC
:1056C0000298FFF73BFD8046049820B907A90F9880
:1056D000FFF71BFC1EE04FF0000A11E000223146EC
:1056E0000BA8FFF7B7FE20B907A90BA8FFF70DFC21
:1056F0000FE0E948824503D9002013B0BDE8F08FE0
:1057000052460AF1010A0BA90F98FFF7AEFE0128D5
:10571000E4D000BF049818B107A8FFF7B5FB0390C9
:1057200000BFDE48007818B1B5F5007F1ED113E147
:10573000DB48808CA84219D10025D948806A02999B
:10574000884202D9D648806A0290012102A8FFF758
:105750003BFB08B90020D0E70298FFF7E9F908B948
:105760000020CAE70298FFF72FF9804608EB1510D2
:10577000FEF7C2FC08B90020BFE7CA48806805F000
:105780000F0100EB41140498D0B3069810B100202B
:10579000207003E00120069040202070B9F1000F36
:1057A0002FD009F10C000D21B0FBF1F02178084356
:1057B000207003986073002060830F20E0722078CF
:1057C00000F01F00401E00EB800101EBC00A0F98A3
:1057D00000EB0A012046FFF71DFBB9F10C0F02D9BF
:1057E000A9F10D0901E04FF0000905F00F000F28A5
:1057F00068D108EB1510FEF7C3FA0028F8D17CE752
:1058000000E000E000BF0020019006E007A9019839
:10581000095C21540198401C019001980B28F5D394
:10582000002F5DD1002020736073FEF77DFE83465C
:10583000594604F10E00FEF713FBFEF78FFE834678
:10584000594604F11000FEF70BFB208A6082E089C4
:10585000E082208A20830020E0613063F0620598B6
:1058600078B31020E0720298306235808C48806AEC
:105870000299884202D98A48806A0290002102A8CF
:10588000FFF7A2FA08B9002037E70298F061029802
:10589000010C04F11400FEF7E3FA029881B204F15E
:1058A0001A00FEF7DDFA08EB1510FEF769FA08B9E1
:1058B000002022E70298FFF73BF908B900201CE717
:1058C00050E000E046E02020E0720020A0826083EB
:1058D000F06108EB1510FEF753FAC8BB00200CE787
:1058E000F87AE072002020736073F889E081388ACA
:1058F0002082FEF733FE8346594604F11200FEF77C
:10590000AFFAB88AA082FEF70FFE8346594604F12B
:105910001600FEF7A5FA608A2083788B6083F86909
:10592000E06100203063F869F06207F11A00FEF7C9
:105930003BFB834607F11400FEF736FB0BEB004000
:10594000F06108EB1510FEF71BFA08B90020D4E649
:10595000FFE703E06D1CE4E60020CEE63580029808
:10596000306200BF0120C8E62DE9F34F81B08946BF
:10597000012600274FF0000B4FF0000AD9F81C0059
:1059800000900198FFF7FBFB012808D1019803F074
:1059900090FC0C300D21B0FBF1F03044C6B2009801
:1059A000FFF7CCFB8046002400BF3C48007828B1BC
:1059B000B4F5007F33D10020BDE8FE8F3848808CDD
:1059C000A0422CD100243648806A0099884202D92E
:1059D0003348806A0090DDF800A06846FFF75DFB61
:1059E00008B90020E8E70098FFF734FB98B1CDF83C
:1059F00000A001216846FFF7E7F908B90020DBE7BE
:105A00000098FFF795F808B90020D5E74FF0000B94
:105A1000DDF800A034E00098FEF7D6FF804608EBE2
:105A20001410FEF769FB08B90020C5E71D4880681F
:105A300004F00F0100EB4115287810B12878FF28F9
:105A400006D107B11CE01FFA84FBDDF800A017E0C7
:105A50002878E52810D1380007F10101CFB207D12D
:105A60001FFA84FBDDF800A0012E00D108E005E05C
:105A7000B74200DB04E001E0002700BF641C94E7AC
:105A80000448A0F800B00248C0F800A0012093E745
:105A900054060020580600203E420F005B060020FE
:105AA00030D500201CD5002070B504460D461646A2
:105AB0000023324629462046FFF7A7FB70BDF0B50C
:105AC00005460B4616460022002400BFA95C5C294F
:105AD00001D0222905D100201855501C306001202A
